:020000040000FA
:1000000002EF00F0006A570E036E000EF86E000E4D
:10001000F76E5E0EF66E960E016EFF0E8A6E8B6A9E
:100020000900F55001641FEF00F0F550015CE8CFC6
:100030008BFF8A508B6429EF00F05DEF00F00150D8
:10004000F55CE8CF8BFF8A508B6429EF00F05DEF01
:1000500000F08BCF8AFF00C002F05DEF00F00004DB
:10006000090D12161B1F24282C31353A3E42474BEE
:100070004F53585C6064686C7074787C8084888BA3
:100080008F93969A9EA1A5A8ABAFB2B5B8BBBEC1DF
:10009000C4C7CACCCFD2D4D7D9DBDEE0E2E4E6E8ED
:1000A000EAECEDEFF1F2F3F5F6F7F8F9FAFBFCFD07
:1000B000FEFEFFFFFF0000000000002A032EB0D765
:0200C00000003E
:0200C20000003C
:020000040030CA
:0100010008F6
:010003001EDE
:00000001FF
